:100000000C94DA040C9423050C9423050C9423051A
:100010000C9423050C9423050C9423050C942305C0
:100020000C9423050C9423050C94E4410C94BB42DE
:100030000C9436370C9423050C9423050C9423055B
:100040000C9423050C9404140C9423050C942305A0
:100050000C9423050C94C7370C9423050C942305AA
:100060000C9423050C9423050C9423050C94230570
:100070000C9423050C9423050C9423050C94230560
:100080000C94AB0F0C9423050C9423050C942305BE
:100090000C9423050C94230507634236B79BD8A71D
:1000A0001A39685618AEBAAB558C1D3CB7CC57639D
:1000B000BD6DEDFD753EF6177231BF000000803F4B
:1000C00008000000BE922449123EABAAAA2ABECD67
:1000D000CCCC4C3E00000080BEABAAAAAA3E0000D9
:1000E0000000BF000000803F0000000000084178D1
:1000F000D3BB4387D1133D190E3CC3BD4282AD2B08
:100100003E68EC8276BED98FE1A93E4C80EFFFBEFF
:1001100001C4FF7F3F00000000006D6F6465206A2E
:1001200075737420737769746368656420746F20D5
:1001300071776572747920616E64207468697320C8
:1001400069732061206875676520737472696E67D2
:100150000A002B0014001A000800150017001C00EC
:1001600018000C00120013002A0029610446160032
:10017000070009000A000B000D000E000F003346B7
:100180000057D75C1D001B00060019000500110078
:100190001000360037003800287205512C612964A0
:1001A0002B682C452C622C722C4450785100520044
:1001B0004F44010014000B00120018001B000A003D
:1001C0000600150009001D00010001001C000C00C4
:1001D0000800040037000700160017001100050092
:1001E000010001000D00380036000E0034001A0036
:1001F00010000F00130019000100010001000100B0
:1002000001000100010001000100010001000100E6
:100210000100010014001A00090013001D0003571B
:100220000F0018001C0033000100010004461500F7
:10023000160017000A001000110008000C001246FA
:10024000010001001B0006001900070005000E0058
:100250000B003600370038000100010001000100EA
:100260000100010001000100010001000100010086
:10027000010014001A00090013001D0031003500B0
:100280000D000F0018001C00330004461500160076
:1002900017000A002D0034001000110008000C00A7
:1002A00012461B001900060007000500260227025F
:1002B0000E000B003600370038000100010001007D
:1002C00029682C452B622A72284401000100010094
:1002D000010035001E021F02200221022202230219
:1002E00024022502260227022A0001001E001F0008
:1002F00020002100220023002400250026002700E2
:10030000340001002F0030002D002E003500310098
:1003100034000100010001003100F45C0100010023
:10032000010005510100010001000100AA00A9001F
:10033000350035021E021F0220022102360037005E
:100340005F006000610055002D000451220223026D
:1003500024022502260227025C005D005E00570091
:1003600034000100260227022D002E002F0030004D
:1003700059005A005B005800310001002A000100BA
:100380000100E1002A002C00624462006300580072
:100390003500000000000000000000000000000028
:1003A00000000000000000000000010000004A0002
:1003B0004B004E004D005000510052004F00000015
:1003C000010001000000000000000000000000002B
:1003D0000000000000000000010001000100010019
:1003E0000100010001000100010001000100010005
:1003F00001000100005C015CC25CC35CC55CC65CC2
:10040000C75CC85CC95CCA5C4C0001000100295C87
:100410001D5C1E5C01000100F05CF15CF25CF35CB1
:10042000010001002B5C2A5C265C275C2C5C2D5CA7
:1004300000000000010001000100010001000100B6
:1004400001000100010001000100010001000100A4
:10045000010044454255473A20656E61626C65640F
:100460002E0A000A002530313662003A200025307D
:100470003258000A722F6320303132333435363728
:1004800038394142434445460A00617564696F202A
:10049000706C6179206E6F746520667265713D25A0
:1004A0006420766F6C3D256400617564696F20730C
:1004B000746F70206E6F746520667265713D25647F
:1004C00000617564696F2073746F7020616C6C20BB
:1004D0006E6F746573007267625F6D6174726978C4
:1004E0005F696E69745F64726976657273207267A2
:1004F000625F6D61747269785F636F6E6669672EA3
:100500006D6F6465203D20302E2057726974652020
:1005100064656661756C742076616C7565732074B2
:100520006F20454550524F4D2E0A007267625F6D35
:1005300061747269785F696E69745F647269766507
:100540007273206565636F6E666967206973206EDC
:100550006F7420656E61626C65642E0A007267625A
:100560005F6D61747269785F636F6E6669672E7321
:1005700070656564203D2025640A007267625F6DC6
:1005800061747269785F636F6E6669672E76616CFD
:10059000203D2025640A007267625F6D6174726994
:1005A000785F636F6E6669672E736174203D2025E6
:1005B000640A007267625F6D61747269785F636F6D
:1005C0006E6669672E687565203D2025640A007295
:1005D00067625F6D61747269785F636F6E66696789
:1005E0002E6D6F6465203D2025640A007267625F8E
:1005F0006D61747269785F636F6E6669672E656E90
:1006000061626C65203D2025640A007267625F6D3F
:1006100061747269785F636F6E6669672065707276
:100620006F6D0A006565636F6E6669675F757064FC
:100630006174655F7267625F6D61747269785F642F
:10064000656661756C740A0000000000000101011C
:10065000010101010101020202020202020202037F
:10066000030303030303030404040404040505054E
:10067000050506060606060707070708080808090D
:1006800009090A0A0A0A0B0B0B0C0C0C0D0D0D0EB6
:100690000E0F0F0F10101111111212131314141545
:1006A0001516161717181819191A1A1B1C1C1D1DB8
:1006B0001E1F1F202021222223242525262727280C
:1006C000292A2B2B2C2D2E2F2F3031323334353637
:1006D000363738393A3B3C3D3E3F40414243444641
:1006E0004748494A4B4C4D4F505152535556575815
:1006F0005A5B5C5E5F606263646667696A6C6D6EBC
:10070000707173747678797B7C7E8081838486882F
:100710008A8B8D8F91929496989A9B9D9FA1A3A569
:10072000A7A9ABADAFB1B3B5B7B9BBBDBFC1C4C667
:10073000C8CACCCFD1D3D6D8DADCDFE1E4E6E8EB27
:10074000EDF0F2F5F7FAFCFF0A00253032582000F0
:100750006B6579626F6172645F7265706F72743A13
:1007600020000A0025303258006B6579626F617293
:10077000645F7365745F6C65643A200064656C5FE8
:100780006B65795F6269743A2063616E27742064D7
:10079000656C3A20253032580A006164645F6B65ED
:1007A000795F6269743A2063616E277420616464C2
:1007B0003A20253032580A004B6579626F617264C5
:1007C0002073746172742E0A005B575D005B535D89
:1007D000005B525D005B445D005B435D00040330E1
:1007E0000000001A0350006C0061006E0063006B93
:1007F0000020004C00690067006800740000000AD7
:10080000034F004C004B00420000000403090409A0
:1008100002BF00050100A0FA090400000103010164
:100820000009211101000122400007058103080091
:100830000A0904010001030000000921110100015F
:100840002271000705820320000A09040200020346
:100850000000000921110100012222000705830385
:1008600020000107050303200001080B030201011A
:100870000000090403000001010000092401000137
:100880000900010409040400020103000007240117
:1008900000014100062402010100062402020200B8
:1008A00009240301030102010009240302040101D8
:1008B00001000905050240000500000525010101B0
:1008C000090584024000050000052501010312010D
:1008D000100100000008EDFE656001000102030147
:1008E0000631FF0974A1010975150026FF00952046
:1008F000750881020976150026FF0095207508917C
:1009000002C005010980A10185031601002603002C
:100910001A81002A8300751095018100C0050C0919
:1009200001A1018504160100269C021A01002A9CDF
:1009300002751095018100C005010906A101850518
:10094000050719E029E715002501950875018102C1
:100950000508190129059505750191029501750391
:1009600091010507190029EF1500250195F0750182
:100970008102C005010906A101050719E029E71553
:100980000025019508750181029501750881010511
:1009900008190129059505750191029501750391C5
:1009A000010507190029FF150026FF0095067508A7
:1009B0008100C00011241FBECFEFD0E2DEBFCDBF4B
:1009C00004B603FE27C08091D70B9091D80BA0915D
:1009D000D90BB091DA0B8730904BA740B04BD1F4D4
:1009E0001092D70B1092D80B1092D90B1092DA0BF1
:1009F00014BE84B7877F84BF0FB6F894A895809102
:100A00006000886180936000109260000FBEE0E09B
:100A1000F0EF099517E0A0E0B1E0EAE9F3E900E0C2
:100A20000BBF02C007900D92A83DB107D9F72BE08C
:100A3000A8EDB7E001C01D92A73DB207E1F70E9403
:100A4000DE3E0C94CB490C940000FF93EF93E091B1
:100A5000D807F091D907309709F00995EF91FF91E8
:100A60000895FC018591803011F0EFDFFBCF0895F0
:100A7000FF27E0E230E247FF0CC0419597FF09C035
:100A8000EDE26095709580959095611D711D811DB9
:100A9000911D27FF02C0219530E350E2AA27660F7F
:100AA000771F881F991FAA1FA41710F0A41B639516
:100AB0005A95A9F7AA3008F0A95FA05DAF93F39506
:100AC000611571058105910541F7ED3211F4EF9340
:100AD000F395F21718F43F93F395FBCF8F91B5DFA1
:100AE000FA95E1F70895E991F9918591803021F027
:100AF000853219F0AADFF9CF089520E0E8945591E6
:100B00005532C1F3503311F4689455915A3348F477
:100B1000505390F3220F022E220F220F200D250F8B
:100B2000F4CF0EF4219589919991533619F35337E7
:100B300029F1533559F1BC0188279927E8945C368F
:100B400021F48991999168945591543639F446EF7E
:100B50007EF077FF0DC08FEF9FEF0AC055374AE058
:100B600039F0583540E121F0523642E009F008955D
:100B7000FF93EF937DDFEF91FF91B7CFFF93EF935B
:100B8000FC0181918030B9F360DFFBCFFF93EF93DD
:100B900068DFF1CFDF93CF93CDB7DEB72596A3DF24
:100BA000CF91DF910895E82FF0E0893068F5E552A4
:100BB000FA4F0C94BD482106E405E605E905ED056C
:100BC000F205F805FE05010681E008958091E10730
:100BD00008958091DE07817008958091DE078695E3
:100BE000817008958091DE0782FB882780F908953F
:100BF0008091DE0783FB882780F908958091E007C4
:100C0000EACF8091E007EBCF399741E050E060E018
:100C100070E004C0440F551F661F771FEA95D2F796
:100C20008091DA079091DB07A091DC07B091DD0796
:100C3000482359236A237B2381E0452B462B472BEE
:100C400009F480E008951F93CF93DF93809104010E
:100C50000E94D305C82F809105010E94D305D82F8B
:100C6000809106010E94D305182F809107010E94F0
:100C7000D3054091E10741114AC0ED2FF0E0EE0F9E
:100C8000FF1F54E0159F9001112458E0859FC0017B
:100C90001124E45FFE4FEC0FF11DE20FF31FE80F8C
:100CA000F91FE0818091DF07811109C02091E007E1
:100CB00030E02F5F3F4F237033272093E00790E011
:100CC000019663E070E00E94A9488093DF0780915D
:100CD000DE0790E001968F7099278093DE07809160
:100CE000DA079091DB07A091DC07B091DD07880F50
:100CF000991FAA1FBB1F8E0F911DA11DB11D8093AF
:100D0000DA079093DB07A093DC07B093DD074F5F12
:100D100041704093E107809108010E94D305C82FDC
:100D2000809109010E94D305D82F80910A010E9469
:100D3000D305DD0F880F880FD80FCD0F80910B01E1
:100D40000E94D305880F880F880F8C0FDF91CF91F9
:100D50001F910895569A5E9A0C94C60D0C94D30672
:100D60000C94110780E00E946B240C942D37FC0139
:100D70008081813019F485EE0E94032B83E30C946B
:100D8000032BFC018081813019F485EE0E94062C32
:100D900083E30C94062C0F9307E024E045E00E94C7
:100DA00065080F910895CF93FB01823F2CE59207D0
:100DB00049F148F4803F2CE5920799F0813F9C452A
:100DC000E1F0C1E023C0833F2CE5920711F1843F9D
:100DD0009C45B9F7C28185EECC2301F10E94032B1B
:100DE0000AC0C281CC2391F08AE191E00E943105D2
:100DF00080E00E944508C0E009C0C281CC2331F0E8
:100E000081E0F7CFC28182E0C111F3CF8C2FCF9167
:100E10000895C28183E0CC23C9F3EBCF0E94062C56
:100E2000F5CF1F93CF93DF93CDB7DEB7A3970FB660
:100E3000F894DEBF0FBECDBF8091E5078823E1F1B6
:100E40008091E2079091E307892B39F583E2ECE783
:100E5000F5E0DE01119601900D928A95E1F70E946E
:100E6000230621E030E02C0F3D1F280F311DF90132
:100E7000108180911E01180F8091E407811769F09D
:100E80000E94430F0E945315812F0E94430F4FE091
:100E900050E00E940D161093E4078091E2079091B4
:100EA000E307019660911C0170911D010E94954815
:100EB0009093E3078093E207A3960FB6F894DEBF02
:100EC0000FBECDBFDF91CF911F9108958450914502
:100ED000029710F081E0089580E00895609139094B
:100EE00070913A0980913B0990913C090E948335A9
:100EF000843081F0853039F42FEF4FEF6FEF88E2C7
:100F000090E00E94FC1C20E040E060E08AE290E07B
:100F10000C94FC1C2FEF4FEF6FEF8CE290E0F1CFC1
:100F20000F931F93CF93DF938C01EB019A9581155B
:100F30009F41B8F410FF03C080EEFB01099511FF3B
:100F400003C081EEFE01099512FF03C082EEFE018F
:100F5000099513FF03C083EEFE01099501151041A9
:100F600028F4DF91CF911F910F91089584EEFE0137
:100F7000099585EEFE01099586EEFE01099587EE3D
:100F8000FE01DF91CF911F910F910994877091E03D
:100F900001C0990F8A95EAF7892F0E94E0340C94DA
:100FA0001B350C94C607877091E001C0990F8A9594
:100FB000EAF7892F0E94E6340C941B350C94D30772
:100FC000CF93DF93EC01805E9109089720F066ECE7
:100FD00077E0209711F461ED77E0CE010E94900751
:100FE0008C2FDF91CF910C94032BCF93DF93EC01E7
:100FF0000E94062CCE01805E9109089720F063EDD7
:1010000077E0209711F46EED77E0CE01DF91CF917C
:101010000C94900781E008951F93CF93DF9300D045
:1010200000D01F92CDB7DEB749835A836B832091DE
:10103000E20889819A8121111BC06623A9F00E94D0
:101040003434182F682F89819A810E94DA3369819C
:101050007A81812F0F900F900F900F900F90DF915A
:10106000CF911F910C944B0B0E940934182FEFCF96
:101070000E94343469817A81EDCFFC014081518135
:101080006281738184810C940C08CF93DF93C82F05
:1010900020E8829FC001112440E060E170E08D579C
:1010A0009E4F0E940E1461E070E0CB0102C0880FD9
:1010B000991FCA95E2F7EC010E940836BE0190E044
:1010C00080E0DF91CF910C94DE328F929F92AF92AD
:1010D000BF92CF92DF92EF92FF920F931F936B011B
:1010E0007C0181E090E0A0E0B0E04C015D0104C033
:1010F000880C991CAA1CBB1C4A95D2F7B501A40107
:101100004C015D0104C0880C991CAA1CBB1C2A95CB
:10111000D2F7482959296A297B2904C0880F991FC9
:10112000AA1FBB1F0A95D2F78A019B010C211D2122
:101130002E213F21041715072607370789F48C292C
:101140009D29AE29BF29BC01CD011F910F91FF90B0
:10115000EF90DF90CF90BF90AF909F908F900895C9
:1011600080959095A095B0958C219D21AE21BF21B1
:10117000EACF0E94F535811102C00E947D360E949F
:1011800091140E9429240C94AA060E94D3190E944B
:10119000E8280E94EE220C94B00608950C94CD0825
:1011A0000C94CE080895CF93DF930E94EB2E0E94FB
:1011B00067190E9498190E946837EC0140E063E0CB
:1011C00070E083E393E00E940E140E94D208CE01E7
:1011D0000E9480378A3F910530F00E940215DF910E
:1011E000CF910C94ED378FE99FE00197F1F700C0A4
:1011F0000000EDCF0F931F93CF93DF938C010E94DC
:101200003D08EC01B8010E944828B801CE010E94B7
:10121000AE06882309F4DBC0B801CE010E94600F3E
:10122000882309F4D4C0B801CE010E942F1A882364
:1012300009F4CDC0B801CE010E948E28882309F49C
:10124000C6C0C93C8CE5D80709F400C108F066C0E7
:10125000C23CECE5DE0709F4D5C0B0F5C5318CE53C
:10126000D807D0F4C2309CE5D90708F016C1C115E3
:10127000ECE5DE0709F4A6C0C130DC4509F4ADC0D9
:1012800081E08093EB078093EC07C801DF91CF9159
:101290001F910F910C940A08C631DC4589F70E9412
:1012A000C934F8019281992309F4E7C18A7A91E05F
:1012B00009F490E09093E6078111DDC189E20E9474
:1012C000A4340E941B3583C0C53C9CE5D90709F4B2
:1012D000ACC0A8F4C33CFCE5DF0709F49AC0C43CE9
:1012E000DC4571F6F8018281882309F470C00E9400
:1012F000C934827209F496C00E94852468C0F8013E
:101300008281C73CFCE5DF0709F49BC008F494C068
:10131000882309F45CC00E94DE2459C0C63DECE578
:10132000DE07E8F4CE3CFCE5DF0708F050C0CB3C1C
:101330008CE5D80709F49AC008F490C0CC3CECE5E1
:10134000DE0709F49BC0CD3CDC4509F099CFF801DC
:1013500082818823E1F181E00E94242538C0C93DC3
:101360008CE5D80709F46CC1C0F4C73DECE5DE0795
:1013700009F42AC1C83DDC4509F082CFF801828119
:10138000882309F448C11092EC070E9468379093B3
:10139000EA078093E90780E224C1CD3D8CE5D807B8
:1013A00009F474C0CE3D9CE5D90729F1CC3DDC455C
:1013B00009F066CFF8018281882349F080E00E941D
:1013C000743F05C0F801828181110E94D30880E03A
:1013D000DF91CF911F910F910895F80182818823A9
:1013E000B1F38091660981608093660982E594E09B
:1013F0000E943105ECCFF8018281882341F30E94DD
:101400007D36E5CFF8018281882309F30E946E249E
:10141000DECFF80182818823D1F20E94C934827222
:1014200009F46ACF0E94A224D2CFF80182818823D6
:1014300071F20E94BA24CBCF882349F20E94C524BE
:10144000C6CF882321F20E94D024C1CFF801828127
:10145000882309F4BCCF0E94EC24B9CFF801828123
:10146000882309F4B4CF0E94FA24B1CFF801828115
:10147000882309F4ACCF0E940825A9CFF801828106
:10148000882309F4A4CF0E941625A1CFF8018281F8
:10149000882309F49CCF82E092CFF80182818823CF
:1014A00009F4F3CE0E94F535811102C00E947D3609
:1014B0000E940D3690E09093DC0A8093DB0AFE01D7
:1014C000E350FC45E231F105B0F4E759F54F0C94D7
:1014D000BD48810A850A890A8D0A910A950A990AE6
:1014E0009D0AB10AB50AB90ABD0AC10AC50AC90AE4
:1014F000CD0AD10ADD0A8091DB0A81608093DB0A84
:1015000029C08091DB0A8260F9CF8091DB0A846078
:10151000F5CF8091DB0A8860F1CF8091DB0A806192
:10152000EDCF8091DB0A8062E9CF8091DB0A806495
:10153000E5CF8091DB0A8068E1CF8091DB0A84608F
:1015400088608093DB0A40E064E070E083E093E031
:101550000E940E148091DB0A0E9411360E94EB2E2D
:1015600036CF8091DB0A8E7FC9CF8091DB0A8D7FD9
:10157000C5CF8091DB0A8B7FC1CF8091DB0A877F4B
:10158000BDCF8091DB0A8F7EB9CF8091DB0A8F7D42
:10159000B5CF8091DB0A8F7BB1CF8091DB0A8F774B
:1015A000ADCF8091DB0A8B7F877F8093DB0A40E0A1
:1015B00062E070E083E293E0CBCF9091DB0A892F69
:1015C00097FB87F980589ACFF8018281882361F0D0
:1015D0001092EB070E9468379093E8078093E70723
:1015E00082E00E94552CF3CE8091EB0781110FC051
:1015F0008091E7079091E8070E948037883C910529
:1016000030F486E20E94032B86E20E94062C82E0E0
:101610000E945C2CDCCE8091EC0781110FC0809180
:10162000E9079091EA070E948037883C910530F4E1
:1016300087E20E94032B87E20E94062C80E2E8CF1B
:10164000F801828181119FCE8091EC078111F6CF44
:101650008091E9079091EA070E948037883C9105C4
:1016600068F780E20E945C2C88E20E94032B88E2EB
:101670000E94062CACCE85E322CE8091E607811134
:1016800004C089E20E94AB341CCE85E3FBCF90E01E
:1016900080E008950895972F70E02CE0929F600DF0
:1016A000711D1124FB0190E3899FE00DF11D1124B0
:1016B000EE0FFF1FEE5AFE4F859194910895FC01A5
:1016C000EE0FFF1FED59FB4F859194910895CF9335
:1016D000DF930E944B0B0E94230DEC018115904576
:1016E00008F043C0C11580E4D80708F017C1C83E10
:1016F000D10528F5C03ED10508F0A3C0C83AD105F0
:1017000080F4C53AD10508F092C0C130D10509F482
:1017100098C020F0C430D10508F093C0D0E0C0E0FC
:1017200090C0CF3BD10508F490C0CE01805C9109F8
:10173000C03CD10598F30E945F0BEC0182C0C1153B
:1017400020E2D20750F4C11581E0D80708F079C033
:10175000C03FD10518F3D06574C0C11520E3D2078E
:1017600008F0D2C0CE019F70E6CFC11585E5D8073D
:1017700060F5C11524E5D20708F0FEC0C11582E569
:10178000D80750F4C11521E5D20708F4CAC0DC2FF0
:10179000CC27C16FD06A55C09C2F969596959E0117
:1017A00023703327C115D34508F0D7C0C1E0D0E07E
:1017B00002C0CC0FDD1F2A95E2F720E2929FC00104
:1017C0001124C82BD92BDC683CC0C11529E5D207F0
:1017D000A8F4C11588E5D80708F0D3C0C11526E5DF
:1017E000D20708F09BCF8C2F0E94A30DC82FD0E00A
:1017F000DC2FCC27CC27DF71D06223C0C1158AE54E
:10180000D80708F4C3C0CE0190568115904208F065
:1018100085CF8D2F8F710E94A30DDD27D06290E0C0
:10182000982F882788279F71C82BD92B0AC0C53AC3
:10183000D10509F4BDC0C63AD10509F4BCC0C3E85E
:10184000D0E4CE01DF91CF910895C83AD10509F4D3
:10185000B5C0C93AD10509F4B4C0CA3AD10509F4F2
:10186000B3C0CB3AD10509F4B2C0CC3AD10509F4E2
:10187000B1C0CB3BD10509F4B0C0CC3BD10509F4D4
:10188000AFC0CD3AD10509F4AEC0C03BD10509F4D3
:10189000ADC0CE3AD10509F4ACC0CF3AD10509F4B8
:1018A000ABC0C13BD10509F4AAC0C23BD10509F4C4
:1018B000A9C0C33BD10509F4A8C0C43BD10509F4B4
:1018C000A7C0C53BD10509F4A6C0C63BD10509F4A4
:1018D000A5C0C73BD10509F4A4C0C83BD10509F494
:1018E000A3C0C93BD10509F4A2C0CD3BD10509F481
:1018F000A1C0CE3BD10509F4A0C0CA3BD10509F077
:101900009FC0CAE2D6E49DCFCE019927D3FF03C082
:10191000EC01D86C96CFEC01D06C93CFDF70D06A1D
:1019200090CFCE01F4E096958795FA95E1F7837014
:101930009C2F937021E030E002C0220F331F9A9554
:10194000E2F73C68382BC695C695C37080E2C89F05
:10195000E0011124C22BD32B74CFC1E0D0E002C030
:10196000CC0FDD1F2A95E2F720E2929FC0011124DF
:10197000C82BD92BDA6865CFDC2FCC27C46FD06A8F
:1019800060CFDC2FCC27C06FD06A5BCF8C2F8F70DD
:101990000E94A30D34E0D695C7953A95E1F7CF7034
:1019A000D0E0DC2FCC27D06A8F70806EC82B49CF57
:1019B000C1E8D0E446CFC2E8D0E443CFC2EED4E4DD
:1019C00040CFC9EED4E43DCFCAEED4E43ACFC5EB64
:1019D000D4E437CFC6EBD4E434CFC3EBD4E431CF77
:1019E000C4EBD4E42ECFC7EBD4E42BCFCCECD4E4BF
:1019F00028CFCDECD4E425CFC3E8D5E422CFCAE884
:101A0000D5E41FCFC2E9D5E41CCFC4E9D5E419CF92
:101A1000C1E2D6E416CFC3E2D6E413CFC4E2D6E4E3
:101A200010CFC5E2D6E40DCFC6E2D6E40ACFC7E2B6
:101A3000D6E407CFCFE6D4E404CFC0E7D4E401CFA7
:101A4000C0E0D4E4FECE8238910549F1B0F4813390
:101A5000910509F45CC048F48932910509F452C03B
:101A60008A32910509F458C008958533910509F427
:101A700044C08933910599F00895833E910531F171
:101A800038F4803E910591F0823E9105B1F00895C1
:101A9000863E910511F1873E910541F1089520910F
:101AA000DB0A2370C9F080EE90E008952091DB0AF4
:101AB00020FF12C089E390E008952091DB0A22FF05
:101AC0000BC024FF2EC090E080E008952091DB0A37
:101AD00022FD2AC024FDF7CF08952091DB0A23FFC1
:101AE000FBCF24FDF0CF87EE90E008952091DB0A34
:101AF00023FFF0CF86EE90E008952091DB0A25FDCC
:101B000016C008952091DB0A25FD14C00895209188
:101B1000DB0A26FD12C008952091DB0A26FD10C0C5
:101B2000089583EE90E0089582EE90E0089589E2B2
:101B300090E0089585E390E008958AE290E00895AA
:101B400081E390E0C9CF9091DB0A92FF06C0282F75
:101B50002871283069F4877F846093FF06C0282F9E
:101B60002871283161F4877E846194FD877E089511
:101B7000282F2471243089F78B7F8860EECF282F9F
:101B80002471243191F78B7E8861EFCF0895E82F7F
:101B9000F0E0EE0FFF1FE351F84F8081918108952F
:101BA000CF92DF92EF92FF920F931F93CF93DF9329
:101BB00083E794E00E9431058DEEE82E87E0F82E51
:101BC000D0E0C0E09EE6C92E94E0D92E05E614E0F0
:101BD000DF93CF93DF92CF920E94CA058BE694E009
:101BE0000E943105F701819191917F010E94E835B2
:101BF0009F938F931F930F930E94CA0583E694E0EF
:101C00000E94310521968DB79EB708960FB6F894BD
:101C10009EBF0FBE8DBFC430D105D1F6DF91CF91ED
:101C20001F910F91FF90EF90DF90CF900895CF9389
:101C3000DF93A6E5B7E02AE537E061E070E09D912B
:101C4000E92FE295EF70F0E041A19F70EB0102C037
:101C5000CC0FDD1F9A95E2F7CE018095842381A3F6
:101C60002A173B0761F7AAE4B7E046E557E0C1E071
:101C7000D0E08D91E82FE295EF70F0E061A18F70D8
:101C80009E0101C0220F8A95EAF7922F9095962324
:101C900091A382A1822B82A34A175B0751F710926E
:101CA000F6071092F5071092EE071092ED071092CA
:101CB000F8071092F7071092F0071092EF071092B2
:101CC000FA071092F9071092F2071092F10710929A
:101CD000FC071092FB071092F4071092F30784E0C0
:101CE0000E94090FDF91CF910C94B9086F927F92F7
:101CF0009F92AF92BF92CF92DF92EF92FF920F939B
:101D00001F93CF93DF93A5EFB7E096E5692E97E099
:101D1000792E20E0EE24E394F12CAD90BC90119745
:101D200011961C921E92E30189913E01E82FE295E3
:101D3000EF70F0E091A18F70B70101C0660F8A9536
:101D4000EAF7892F862B81A382A1962E9094892170
:101D500082A3D0EADA95F1F78AE4C82E87E0D82E7C
:101D600050E040E0E60139916E01032F02950F70BB
:101D700010E0E80188A10D911C91119790E03F704F
:101D800002C0959587953A95E2F780FD3FC0C7015F
:101D9000042E02C0880F991F0A94E2F7082B192B12
:101DA00011961C930E934F5F5F4F4C305105D1F647
:101DB00081A1892181A382A1682B62A381E04D9139
:101DC0005C9111974A155B0509F480E0282B129667
:101DD000DAE56D16D7E07D0609F09FCF44E06DEEA1
:101DE00077E085EF97E00E940A0F0E94C50881E026
:101DF000DF91CF911F910F91FF90EF90DF90CF90E7
:101E0000BF90AF909F907F906F90089590E080E09A
:101E1000C5CF0895FF920F931F93CF93DF93F82EB2
:101E2000092F162FD72FC42F222349F081E080934A
:101E3000FF070E9468379093FE078093FD0780910B
:101E4000FF078823A1F08091FD079091FE070E9473
:101E50008037069760F0EF2DF02FA12FBD2F90E077
:101E600080E0D0E08C179D0744F01092FF07DF91CF
:101E7000CF911F910F91FF900895219131912D9352
:101E80003D930196EFCF8554990BBC01990F880BB8
:101E9000990B0E948E4520E030E040E451E40E941E
:101EA000E4449B01AC0160E070E080E090E40E94BB
:101EB000124720E030E04CED53E40E94A54608951F
:101EC000FB018D312CE5920739F482818823A1F141
:101ED0000E949E1680E008958E312CE5920731F421
:101EE0008281882349F10E94AE16F4CF8F312CE510
:101EF000920741F482818823F9F00E949A16811199
:101F0000F2CFE6CF8A322CE5920769F482818823EA
:101F100099F00E94C71640E064E070E08BE493E023
:101F20000E940E14D7CF8B329C4531F482818823D6
:101F300019F00E94D016EFCF81E008950E94430F60
:101F40004FE050E00C940D160E94430F0C94531573
:101F50000C94021508951F920F920FB60F92112440
:101F60000BB60F924F925F926F927F928F929F92D9
:101F7000AF92BF92CF92DF92EF92FF922F933F9357
:101F80004F935F936F937F938F939F93AF93BF9381
:101F9000EF93FF9380911408882309F4B1C1E09076
:101FA0005608F09057081E141F040CF0A9C121E038
:101FB000E216F10409F4DEC020E030E0A9016091EE
:101FC00003087091040880910508909106080E940A
:101FD000DF448111C6C2F701EE0FFF1FEE0FFF1F96
:101FE000EE5DF74F80809180A280B3808091B30333
:101FF000882309F4ADC2C0904C08D0904D08E09001
:102000004E08F0904F0820E030E0A901C701B6016A
:102010000E94DF44882309F49BC2A5019401C701F3
:10202000B6010E94DF4487FF5CC2A501940160E015
:1020300070E08CED93EC0E94E44420E030E040E45A
:1020400051E40E94E44420E030E040E05FE30E947D
:10205000A5469B01AC0160E070E080E090E40E9446
:102060001247A50194010E94A5469B01AC01C7013E
:10207000B6010E94DF4487FF34C2A701960160E0E9
:1020800070E08CED93E40E94E44420E030E040E412
:1020900051E40E94E44420E030E040E05FE30E942D
:1020A000A5469B01AC0160E070E080E090E40E94F6
:1020B00012479B01AC01C701B6010E94A54660937F
:1020C0004C0870934D0880934E0890934F08609190
:1020D0004C0870914D0880914E0890914F082091C6
:1020E0000008309101082F3F320731F02F5F3F4F3A
:1020F00030930108209300080E94D9166B017C01DF
:1021000020E034E244EF51E40E94DF4487FF08C03E
:1021100086EFC82E88E2D82E84EFE82E81E4F82ED0
:1021200020E030E040E051E4C701B6010E94A5463E
:102130009B01AC0160E074E284E79BE40E94E4440C
:102140006B017C010E945D4570938700609386005F
:102150002091B4033091B5034091B6035091B70379
:10216000C701B6010E94A5460E945D457093890093
:102170006093880040900308509004086090050820
:1021800070900608E0905608F090570820E030E084
:10219000A901C301B2010E94A04618160CF0E5C1C6
:1021A00082E0E816F1040CF452C08091540890913A
:1021B0005508B7010E94A9486C0190935508809377
:1021C00054088090160890901708A0901808B090B6
:1021D000190820E030E040E85FE3C501B4010E9447
:1021E00073446093160870931708809318089093AF
:1021F0001908F601EE0FFF1FEE0FFF1FE65DF74F08
:10220000A301920160817181828193810E94E444E3
:1022100020E030E040E05EE30E94A5469B01AC0177
:10222000C501B4010E94A04618168CF4C60101969F
:10223000B7010E94A94890935508809354081092C2
:102240001608109217081092180810921908E091B9
:102250005408F0915508EE0FFF1FEE0FFF1FE65DCB
:10226000F74F6081718182819381209100083091C4
:1022700001082F3F320731F02F5F3F4F30930108A5
:10228000209300080E94D9166B017C0120E034E203
:1022900044EF51E40E94DF4487FF08C066EFC62E7A
:1022A00068E2D62E64EFE62E61E4F62E20E030E000
:1022B00040E051E4C701B6010E94A5469B01AC0174
:1022C00060E074E284E79BE40E94E4446B017C01DB
:1022D0000E945D4570939700609396002091B4032F
:1022E0003091B5034091B6035091B703C701B601D1
:1022F0000E94A5460E945D457093990060939800E6
:1023000080911508882309F406C2C0901008D09067
:102310001108E0901208F090130820E030E0A901C5
:10232000C701B6010E94A04618160CF0E3C18091C7
:102330000008909101088F3F980729F0019690932B
:10234000010880930008C701B6010E94D91620E059
:1023500030E040E051E40E94A5469B01AC0160E002
:1023600074E284E79BE40E94E4446B017C010E94D8
:102370005D4570939700609396002091B40330916F
:10238000B5034091B6035091B703C701B6010E944F
:10239000A5460E945D4570939900609398006091F6
:1023A0000A0870910B086F5F7F4F70930B08609362
:1023B0000A08E0909600F090970090E080E00E947C
:1023C0008C454B015C0140900C0850900D086090CA
:1023D0000E0870900F08EF2809F495C18091090844
:1023E000811191C1609196007091970090E080E01A
:1023F0000E948C459B01AC01C301B2010E94E444E0
:1024000020E03FEF4FE757E40E94A54620E030E090
:1024100040E85FE30E947244A50194010E94DF44FA
:1024200018160CF478C1809107089091080801965D
:10243000909308088093070820918E0930918F09A6
:102440008217930748F080919509882309F46CC19D
:102450001092080810920708E0919009F0919109F4
:102460008091070890910808409109089C0153E069
:10247000220F331F5A95E1F741118AC141E0409381
:10248000090801979093080880930708E20FF31F4B
:10249000DF011897CD90DD90ED90FC902081318187
:1024A00042815381C701B6010E94DF44811167C197
:1024B000109210081092110810921208109213082E
:1024C00080E090E0A0E8BFE380930C0890930D08B3
:1024D000A0930E08B0930F0810920B0810920A08F0
:1024E0001AC1A5019401C701B6010E94A0461816A1
:1024F0007CF5A501940160E070E08CED93E40E940E
:10250000E44420E030E040E451E40E94E44420E070
:1025100030E040E05FE30E94A5469B01AC0160E033
:1025200070E080E090E40E941247A50194010E94AF
:10253000A5469B01AC01C701B6010E94A046181632
:102540003CF4A701960160E070E08CED93EC9BCD2C
:1025500080924C0890924D08A0924E08B0924F087D
:10256000B6CD60E070E0CB01BACDF701EE0FFF1FF2
:10257000EE0FFF1FEA5DF74F80809180A280B3804D
:102580008091B303882309F4ACC0C0905008D09068
:102590005108E0905208F090530820E030E0A90183
:1025A000C701B6010E94DF44882309F49AC0A5013F
:1025B0009401C701B6010E94DF4487FF5BC0A501FB
:1025C000940160E070E08CED93EC0E94E44420E024
:1025D00030E040E451E40E94E44420E030E040E098
:1025E0005FE30E94A5469B01AC0160E070E080E0E3
:1025F00090E40E941247A50194010E94A5469B0108
:10260000AC01C701B6010E94DF4487FF33C0A701B8
:10261000960160E070E08CED93E40E94E44420E0D9
:1026200030E040E451E40E94E44420E030E040E047
:102630005FE30E94A5469B01AC0160E070E080E092
:1026400090E40E9412479B01AC01C701B6010E94B1
:10265000A546609350087093510880935208909358
:1026600053086091500870915108809152089091E0
:102670005308FBCDA5019401C701B6010E94A046F5
:1026800018167CF5A501940160E070E08CED93E4F0
:102690000E94E44420E030E040E451E40E94E4443D
:1026A00020E030E040E05FE30E94A5469B01AC01E2
:1026B00060E070E080E090E40E941247A501940180
:1026C0000E94A5469B01AC01C701B6010E94A0462D
:1026D00018163CF4A701960160E070E08CED93ECD5
:1026E0009CCF8092500890925108A0925208B092CC
:1026F0005308B7CF1092970010929600109299004D
:10270000109298004CCEA3019201C501B4010E9421
:10271000A04687FF88CE8091920980FD11C010925B
:102720001508109214080CC0809171008D7F809361
:102730007100809190008F73809390001092150823
:10274000FF91EF91BF91AF919F918F917F916F9189
:102750005F914F913F912F91FF90EF90DF90CF903D
:10276000BF90AF909F908F907F906F905F904F90B1
:102770000F900BBE0F900FBE0F901F901895C09238
:102780001008D0921108E0921208F092130898CE27
:10279000109209081092010810920008E20FF31F2E
:1027A00080819181A281B381809310089093110858
:1027B000A0931208B093130820E030E040E85EE3F5
:1027C00064817581868197810E94A5466B017C0199
:1027D0006091B80370E090E080E00E948C4520E0BA
:1027E00030E048EC52E40E94E4449B01AC01C70194
:1027F000B6010E94A54660930C0870930D08809363
:102800000E0890930F0868CE1F920F920FB60F928A
:1028100011240F900FBE0F901F901895CF92DF924A
:10282000EF92FF92CF93DF93EC016B01F42E809136
:102830000208811102C00E9491148091920980FFC8
:1028400069C0809171008D7F8093710080916F00CD
:102850008D7F80936F008091140881110E94021572
:1028600081E080931508D0939109C0939009D0928C
:102870008F09C0928E09F092950910921608109255
:102880001708109218081092190810920808109250
:10289000070888819981AA81BB8180931008909351
:1028A0001108A0931208B093130820E030E040E82C
:1028B0005EE36C817D818E819F810E94A5466B01C4
:1028C0007C016091B80370E090E080E00E948C454C
:1028D00020E030E048EC52E40E94E4449B01AC016B
:1028E000C701B6010E94A54660930C0870930D08BD
:1028F00080930E0890930F0810920B0810920A080C
:102900008091710082608093710080919000806856
:1029100080939000DF91CF91FF90EF90DF90CF9068
:1029200008950F931F93CF93DF930E94F535811184
:1029300002C00E947D360E941636809392098091D3
:10294000020881114BC03E9A809171008D7F809367
:102950007100259A80916F008D7F80936F0002E057
:10296000009390001AE110939100C1ECD1E1D09353
:102970009700C093960023EA3BE04EE855E460914F
:10298000B4037091B5038091B6039091B7030E9490
:10299000A5460E945D45709399006093980000934E
:1029A000800010938100D0938700C093860023EAB3
:1029B0003BE04EE855E46091B4037091B50380911B
:1029C000B6039091B7030E94A5460E945D4570939F
:1029D00089006093880081E08093020880919209C9
:1029E00080FF0BC040E065E070E08BE893E0DF9192
:1029F000CF911F910F910C940E14DF91CF911F91E5
:102A00000F9108958091660980FF08C081EC94E0E1
:102A10009F938F930E94CA050F900F908091020898
:102A2000811102C00E94911410925708109256080A
:102A3000809171008D7F80937100809190008F73E1
:102A40008093900080916F008D7F80936F008091C4
:102A500080008F73809380001092150810921408E4
:102A60001092500810925108109252081092530878
:102A700010924C0810924D0810924E0810924F0878
:102A800010924B0810924A08EAE2F8E0AAE1B8E096
:102A900011921192119211921D921D9288E0EA34C6
:102AA000F807B1F70895CF92DF92EF92FF920F935C
:102AB0001F93CF93DF936B017C018091660980FFA8
:102AC0000FC0C7010E9456457F936F9389EA94E037
:102AD0009F938F930E94CA050F900F900F900F90B5
:102AE00080911408882309F471C080910208811133
:102AF00002C00E9491140AE218E0C7E0D0E0A701EA
:102B00009601F801648D758D868D978D0E94DF4446
:102B1000811176C0FE01EE0FFF1FEE0FFF1FE65D75
:102B2000F74F1082118212821382CC0FDD1FC65E16
:102B3000D74F1982188288E0E634F80709F04FC0B1
:102B40008091560890915708019797FD61C0909326
:102B50005708809356088091560890915708209105
:102B60005408309155082817390724F01092550859
:102B700010925408892B51F5809171008D7F8093BC
:102B80007100809190008F738093900080916F000E
:102B90008D7F80936F00809180008F738093800081
:102BA0001092500810925108109252081092530837
:102BB00010924C0810924D0810924E0810924F0837
:102BC00010924B0810924A0810921408DF91CF918E
:102BD0001F910F91FF90EF90DF90CF900895848127
:102BE0009581A681B78181939193A193B19310822E
:102BF0001182128213828A819B818993999399CF42
:102C0000219704501109CF3FDC0709F078CF98CF06
:102C100010925708109256089ECFCF92DF92EF92F3
:102C2000FF92CF93DF936B017C01D42FC52F80914E
:102C3000660980FF13C05F934F93C7010E945645FA
:102C40007F936F938AE894E09F938F930E94CA05C5
:102C50000F900F900F900F900F900F90809102089F
:102C6000811102C00E9491148091920980FF5BC083
:102C7000809156089091570808970CF054C08091A5
:102C800071008D7F8093710080916F008D7F8093A4
:102C90006F008091150881110E94021581E08093D8
:102CA0001408109201081092000820E030E0A901F9
:102CB000C701B6010E94A0461816DCF480915608A0
:102CC00090915708FC01EE0FFF1FEE0FFF1FE65D0E
:102CD000F74FC082D182E282F382FC01EE0FFF1F28
:102CE000E65EF74FD083C183019690935708809397
:102CF00056088091710082608093710080919000ED
:102D000080688093900080915608909157080297B0
:102D100054F080916F00826080936F0080918000FA
:102D2000806880938000DF91CF91FF90EF90DF90DB
:102D3000CF900895809192098170089580919209B1
:102D40008160809392090E941A360E94AA0F40E087
:102D500062E070E08BE793E00C940E1440E062E0D8
:102D600070E08BE693E00E940E142FEF81EE94E06A
:102D7000215080409040E1F700C000000E94021501
:102D8000809192098E7F809392090C941A368091DB
:102D9000580890E001968770992780935808089505
:102DA0008091580890E0079687709927809358087B
:102DB00008958F929F92AF92BF92CF92DF92EF923F
:102DC000FF92CF93DF936B017C01C0910008D091FB
:102DD0000108BE0190E080E00E948C454B015C013F
:102DE000A701960160E070E08CE594E40E94E44461
:102DF0009B01AC01C501B4010E94A5460E945D453E
:102E00009B01E0915808E83018F5F0E0E65FF84ED5
:102E10000C94BD48121735174E17561828179E18D0
:102E2000CF180D191092B30380E090E0A0E0BFE34B
:102E30008093B4039093B503A093B603B093B70304
:102E400010920308109204081092050810920608C8
:102E5000C701B601DF91CF91FF90EF90DF90CF9047
:102E6000BF90AF909F908F9008951092B3031092EF
:102E700003081092040810920508109206086A5080
:102E8000710980E090E0A0E8BEE36F3B710508F4B3
:102E900060C080E090E0A0E0BEE35BC01092B303AE
:102EA0001092030810920408109205081092060868
:102EB00020E030E040EA52E4C701B6010E94DF445E
:102EC00087FDC6CF20E030E040E253E4C701B60101
:102ED0000E94DF4487FF46C00E94114968E270E00B
:102EE0000E94A948BC01645C7F4F072E000C880B30
:102EF000990B0E948E456B017C0180910008909196
:102F000001088B30910508F18531910508F052C018
:102F100065E170E0681B790B90E080E00E948C45D1
:102F200020E030E040E05FE30E94A54620E030E092
:102F300040E251E40E94E4446093B4037093B5030B
:102F40008093B6039093B70383CF80E090E0A0E036
:102F5000BFE38093B4039093B503A093B603B093FB
:102F6000B70376CF20E030E040EA53E4C701B60172
:102F70000E94DF4487FF27C00E94114968EE73E07A
:102F80000E94A948BC0168517C4F072E000C880B99
:102F9000990B0E948E456B017C01809100089091F5
:102FA00001088630910588F265E170E08531910570
:102FB00008F46BC01092B4031092B5031092B603DC
:102FC0001092B70345CF20E030E040E254E4C7015F
:102FD000B6010E94DF4487FF2FC00E94114960EDB7
:102FE00077E00E94A948BC016854744F072E000C7A
:102FF000880B990B0E948E456B017C018091000823
:10300000909101088031910508F49FCF8531910599
:1030100088F665E170E0681B790B90E080E00E9423
:103020008C4520E030E040E05FE30E94A54620E0D0
:1030300030E040EA50E47ECF20E030E040EA54E463
:10304000C701B6010E94DF4487FF02CF0E941149E9
:1030500060ED77E00E94A948BC016854744F072EC8
:10306000000C880B990B0E948E456B017C018091AE
:103070000008909101088432910508F466CF8333EB
:10308000910508F097CF63E370E0681B790B90E03F
:1030900080E00E948C4520E030E040E05FE30E9449
:1030A000A54620E030E040E751E444CF41E04093C2
:1030B000B3031092030810920408109205081092AE
:1030C00006086431710540F46A30710560F120E052
:1030D00030E040E05FE32BC0693C710508F06ACF47
:1030E00090E080E00E948C4520E030E040EA51E42E
:1030F0000E94724420E030E044E353E40E94E44440
:103100009B01AC010E94A54620E030E040E05EE378
:103110000E94A5469B01AC0160E070E080E09EE368
:103120000E94724409CF20E030E040E85EE3C7012E
:10313000B6010E94A5466B017C01ABCE21E0209335
:10314000B30310920308109204081092050810921D
:1031500006084AE0469F9001479F300D1124C9019F
:1031600068EB7BE00E949548BC016C5D754077FF81
:1031700003C0719561957109072E000C880B990B9E
:103180000E948E452EE333EC4EE259E30E94A546A1
:1031900020E030E040EC5EE30E947344CDCE81E05D
:1031A0008093B3031092030810920408109205084C
:1031B00010920608CE0183709927892B09F1BE0170
:1031C0006170772790E080E00E948C4520E030E03D
:1031D00040E05EE30E94A54620E030E040E45FE38B
:1031E0000E9473446093B4037093B5038093B60355
:1031F0009093B703C770DD27CD2B09F029CEDACE27
:1032000080E090E0A0E0BFE38093B4039093B50327
:10321000A093B603B093B703EDCF41E04093B3035F
:1032200010920308109204081092050810920608E4
:10323000812C912CA12C9FE3B92E8092B403909203
:10324000B503A092B603B092B7032739310508F44D
:10325000FFCD90E080E00E948C4520E030E047E127
:1032600053E40E94724420E030E04AE754E40E94B4
:10327000E44420E030E048E452E40E94A54620E027
:1032800030E040EA51E40E94D4450E945645660F62
:10329000771F660F771F665A784FFB0120813181B7
:1032A00042815381C701B6010E94A5466B017C0192
:1032B000CFCD20E8482F60E08DED9AE00C94673880
:1032C00020E0482F60E08DED9AE00C94773820E004
:1032D0004BE760E08DED9AE00C9457388DED9AE065
:1032E0000C94673ACF93C82F80917108882319F006
:1032F0008C2F0E949E0F80917008882321F08C2FC4
:10330000CF910C945919CF910895CF93C82F8091E4
:103310007108882319F08C2F0E94A40F80917008E7
:10332000882321F08C2FCF910C946019CF910895B0
:103330008091710881110E94A80F809170088111FD
:103340000C94671908950C9466070E9498191092BE
:10335000710840E068E070E089E394E00C940E149A
:103360000E9467191092700840E068E070E089EBF5
:1033700093E00C940E140E94981920915B0530E0A4
:103380002F5F3F4F2370332720935B0548E2429F16
:10339000C001439F900D112440E065E070E0875428
:1033A0009B4F0C940E14CF9380916D088823F1F0FD
:1033B0008091590890915A08009779F40E946837D3
:1033C00090935A088093590880915B08282F30E029
:1033D000882371F0C90101970FC00E9480372091A6
:1033E000590530915A052817390740F3CF910895B0
:1033F00080915C088150990B235A374FF901C081A5
:10340000835A974FFC0180810E9485198C2F0E945E
:10341000721980915B0890E0019660915C0870E001
:103420000E94A94880935B08E1CF089581E08093D2
:10343000710840E068E070E089E794E00E940E14B3
:103440000C94151A089581E08093700840E068E0BC
:1034500070E089EF93E00E940E140C94221AEF9210
:10346000FF921F93CF93DF93CDB7DEB7A3970FB62D
:10347000F894DEBF0FBECDBF7C0186323CE59307DA
:10348000A9F4DB0112968C91882309F458C00E949C
:10349000161A80E0A3960FB6F894DEBF0FBECDBF1C
:1034A000DF91CF911F91FF90EF9008958732BCE597
:1034B0009B0741F4FB018281882309F440C00E94EC
:1034C000A519E7CF8832FCE59F0751F48091710878
:1034D000DB0112969C91992391F18111F0CFD7CF06
:1034E0008C32BCE59B0739F4FB018281882339F1DA
:1034F0000E94231ACECF8D32FCE59F0741F4DB01F9
:1035000012968C918823D9F00E94B019C2CF8E32C6
:10351000BCE59B0749F4FB018281882381F08091FF
:1035200070088111F1CFE4CF89329C4541F4DB0171
:1035300012968C91882319F00E94BB19AACF809112
:103540007108811105C080917008882309F4D5C0E5
:10355000FB012281222309F450C0F0EEEF16F104A2
:1035600061F40E94981981E080936F0810926E08B0
:1035700010926D0810925C088CCF32EEE316F104C5
:1035800071F40E94981980916F08882319F081E0E6
:1035900080936E0810926F0810926D087ACF83EEB8
:1035A000E816F10491F480916E08882331F10E94AD
:1035B000981910926F0881E080936D0810925B0853
:1035C00010925A081092590864CF92E5E916F10456
:1035D00051F48091590590915A050A9790935A0594
:1035E0008093590556CFA1E5EA16F10431F4809194
:1035F000590590915A050A96F1CF80915B0510917B
:103600005E05811111C0135080915C05180FFB01FC
:103610008081180F318184E090E0831B9109FCE0E8
:103620008F9F100D112414C0813061F5105E8091C0
:103630005C05180FDB018C91180F11963C9184E00A
:1036400090E0831B9109982F990F990F890F180FFC
:10365000812F222309F44EC00E94721980916F08B5
:10366000882351F080915C08E82FF0E0E35AF74F8F
:1036700010838F5F80935C08C7010E94A31991E0BB
:10368000892708CF823071F4105E80915C05180F95
:10369000FB018081180F318184E090E0831B910948
:1036A000F7E0BECF8330A1F683E2EFE9F5E0DE017B
:1036B000119601900D928A95E1F7DB01EC9181E082
:1036C00090E08C0F9D1F8E0F911DFC0180915C0579
:1036D00090915D05E80FF91F13508081180F119626
:1036E0003C9184E090E0831B9109ACE08A9F100D2F
:1036F0001124AECF0E948519BFCF81E0CBCECF92EF
:10370000DF92EF92FF920F931F93CF93DF93E82FF7
:10371000F82F71110BC0682F782FDF91CF911F9177
:103720000F91FF90EF90DF90CF900895062F10E05B
:10373000C72FD0E0E82EF12CC8016BE270E00E94A8
:1037400095489B014BE2469FC001479F900D112475
:10375000081B190B86E0809FB001819F700D11241A
:103760004FEF50E0CA018C1B9D0B8E9DD0018F9DA9
:10377000B00D9E9DB00D11248B2FC69F8001C79F59
:10378000100DD69F100D1124012F11276A01C01AA8
:10379000D10ACE9C8001CF9C100DDE9C100D11240F
:1037A0006A01C61AD70ACC9EB001CD9E700DDC9E70
:1037B000700D1124672F7727461B570B4E9DE00194
:1037C0004F9DD00D5E9DD00D11247D2F22303105EF
:1037D00021F148F42115310589F02130310561F0DE
:1037E0007B2F812F0BC023303105D9F024303105D8
:1037F000B9F7ED2F7B2F17C07E2FE12FF0E0E85BAC
:10380000F94F6491E72FF0E0E85BF94F7491E82FEE
:10381000F0E0E85BF94F849180CFEB2F8D2F7F2F65
:10382000EDCF712FEB2F8F2FE9CFE82F86FDE0959D
:103830002E2F2F7086FD2F5FE695E695E695E670B4
:10384000F0E0E655F84F9181929F902D212D1124A3
:1038500092959F702295207F922B2081920F87FD59
:10386000919580E8890F089588E090E00C942849AC
:10387000AB01BC0188E090E00C9446498091660958
:1038800080FF08C084E296E09F938F930E94CA0550
:103890000F900F9089E180939609109297098FEF0E
:1038A00080939809809399098FE780939A09609192
:1038B00096097091970980919809909199090C94B3
:1038C000381C8091660980FF08C08BE096E09F93CA
:1038D0008F930E94CA050F900F908091660980FF18
:1038E0000FC08091960983701F928F938CEE95E0A4
:1038F0009F938F930E94CA050F900F900F900F9087
:103900008091660980FF10C0809196098695869502
:103910001F928F938FEC95E09F938F930E94CA051F
:103920000F900F900F900F908091660980FF0EC04E
:10393000809197091F928F9383EB95E09F938F93CC
:103940000E94CA050F900F900F900F90809166090A
:1039500080FF0EC0809198091F928F9387E995E0B0
:103960009F938F930E94CA050F900F900F900F9016
:103970008091660980FF0EC0809199091F928F93F4
:103980008BE795E09F938F930E94CA050F900F904D
:103990000F900F908091660980FF0EC080919A0968
:1039A0001F928F938DE595E09F938F930E94CA0598
:1039B0000F900F900F900F900895382FE2ECF5E0E4
:1039C00090E080E02081722F7F70731309C02295F0
:1039D0002F70261305C0DA01A80FB11D9C938F5FCD
:1039E0009F5F913319F03496883061F70895E09124
:1039F000B807F091B9070994E091B407F091B507C1
:103A00000994DF92EF92FF920F931F93CF93DF936E
:103A1000FC01C0818AE0C89FC02D11241AE01C0F50
:103A2000012F123308F001E3609197097091980912
:103A3000809199090E947F1BF62EE72ED82ED0E0A8
:103A4000C01760F081E0113308F080E0DF91CF9182
:103A50001F910F91FF90EF90DF9008952D2D4E2D27
:103A60006F2DCE010E94FC1C2196EACFAF92BF922F
:103A7000CF92DF92EF92FF920F931F93CF93DF933A
:103A8000FC01C0818AE0C89FC02D11241AE01C0FE0
:103A9000012F123308F001E3D0919709E0909809C3
:103AA000F09099096D2F7E2D8F2D0E947F1BD62EB1
:103AB000C72EB82E60919A096D0F7E2D8F2D0E9412
:103AC0007F1BF62EE72EA82ED0E0C01778F081E0FD
:103AD000113308F080E0DF91CF911F910F91FF909B
:103AE000EF90DF90CF90BF90AF900895FE01EE0F62
:103AF000FF1FEE0FFF1FEB53FA4F80812A2D4E2D33
:103B00006F2D80FD03C02B2D4C2D6D2DCE010E94FD
:103B1000FC1C2196DACF8F929F92AF92BF92CF92E8
:103B2000DF92EF92FF920F931F93CF93DF93FC01ED
:103B3000C0818AE0C89FC02D11244AE0B42EBC0E7B
:103B4000AB2CF1E3FB1510F431E3A32E9090980910
:103B50008090990920919B0930919C0980919A0944
:103B60008695869510E000E0289F012D389F000D76
:103B7000111D112480E4800F0E94151C90E8E92E8D
:103B8000E80E802F0E94151C8058D0E08E01000F97
:103B9000111F000F111F0E531A4F0E2C000CFF089F
:103BA000C82E880FDD08CA1590F081E090E39B15C0
:103BB00008F480E0DF91CF911F910F91FF90EF907B
:103BC000DF90CF90BF90AF909F908F900895F801B5
:103BD00082818052990B8E9DB0018F9D700D9E9DAC
:103BE000700D112481818057990B8C9D90018D9DC2
:103BF000300D9C9D300D1124620F731F77FF02C0A2
:103C000061587F4F660F672F661F770B809197096A
:103C1000680F792D882D0E947F1B472F282FCE01FA
:103C20000E94FC1C0C5F1F4F2196BDCFBF92CF920C
:103C3000DF92EF92FF920F931F93CF93DF93FC01DC
:103C4000C0818AE0C89FC02D11243AE0F32EFC0EFB
:103C5000DF2CF1E3FF1510F421E3D22EC090980978
:103C6000B090990920919A0980E4E82E3E2D329F68
:103C7000312D1124E32ED0E08E01000F111F000F13
:103C8000111F0E531A4FCD1578F081E030E33F1528
:103C900008F480E0DF91CF911F910F91FF90EF909A
:103CA000DF90CF90BF900895F801828182958F7048
:103CB000609197098E9D600D11247C2D8B2D0E94A3
:103CC0007F1B472F282FCE010E94FC1C0C5F1F4F2B
:103CD0002196D9CFDF92EF92FF920F931F93CF934C
:103CE000DF938C01D0909809D0919909C0919709E0
:103CF000EC2EF12C0E941149282FC7018C549F4FA4
:103D000068E671E00E94A9488E199F0997FD039605
:103D1000959587959595879523706C2F289F600DB5
:103D200011247D2D8D2F0E947F1B472F282FC80126
:103D3000DF91CF911F910F91FF90EF90DF900C9446
:103D4000FC1CFF920F931F93CF93DF93FC01C28162
:103D5000C11128C020919A0930E1230F08F42FEFF8
:103D600040919B0950919C0990E080E0429F812DF9
:103D7000529F800D911D11246AE070E00E949548C9
:103D8000892B49F40E94114969E170E00E94A94819
:103D900048960E946A1E8C2FDF91CF911F910F9140
:103DA000FF900895C0818AE0C89FC02D11248AE049
:103DB000F82EFC0E0F2DF1E3FF1508F401E3D0E01F
:103DC00010E0C017D10734F0C1E080E38F1518F779
:103DD000C0E0E1CFCE010E946A1E2196F2CFDF92B1
:103DE000EF92FF920F931F93CF93DF93FC01C0815B
:103DF0008AE0C89FC02D11240AE00C0FF02E023378
:103E000010F081E3F82EE0909809D0909909209164
:103E10009B0930919C0980919A098695869570E05E
:103E200060E0289F612D389F600D711D1124162FB1
:103E3000D0E0CF1560F081E0013308F080E0DF9141
:103E4000CF911F910F91FF90EF90DF900895612F18
:103E50007E2D8D2D0E947F1B472F282FCE010E9483
:103E6000FC1C2196E6CFBF92CF92DF92EF92FF9299
:103E70000F931F93CF93DF93FC01C0818AE0C89F0B
:103E8000C02D11240AE00C0FD02E023310F031E3C4
:103E9000D32EC0909809B090990940919B095091F8
:103EA0009C0920919A092695269590E080E0429FF2
:103EB000812D529F800D911D1124182FD0E0CE012D
:103EC000880F991F880F991F9C012E533A4F790133
:103ED000CD1570F081E0013308F080E0DF91CF91E3
:103EE0001F910F91FF90EF90DF90CF90BF900895BA
:103EF000F7016181611B7C2D8B2D0E947F1B472F59
:103F0000282FCE010E94FC1CF4E0EF0EF11C21963C
:103F1000DFCFBF92CF92DF92EF92FF920F931F936A
:103F2000CF93DF93FC01C0818AE0C89FC02D11248C
:103F30000AE00C0FD02E023310F031E3D32EC090E4
:103F40009809B090990940919B0950919C09209142
:103F50009A092695269590E080E0429F812D529FF8
:103F6000800D911D1124182FD0E0CE01880F991FCC
:103F7000880F991F9C012E533A4F7901CD1570F08F
:103F800081E0013308F080E0DF91CF911F910F9124
:103F9000FF90EF90DF90CF90BF900895F70162817E
:103FA000611B7C2D8B2D0E947F1B472F282FCE015C
:103FB0000E94FC1CF4E0EF0EF11C2196DFCF8F92E3
:103FC0009F92AF92BF92CF92DF92EF92FF920F93A8
:103FD0001F93CF93DF93FC01C0818AE0C89FC02D5F
:103FE00011245AE0B52EBC0EAB2CF1E3FB1510F4F6
:103FF00041E3A42E909098098090990920919B0903
:1040000030919C0980919A098695869510E000E090
:10401000289F012D389F000D111D112480E4800F71
:104020000E94151C8058990B7C01EE0CFF1C802F00
:104030000E94151C8058990B6C01CC0CDD1CD0E043
:104040008E01000F111F000F111F0E531A4FCA15BA
:1040500090F081E090E39B1508F480E0DF91CF9130
:104060001F910F91FF90EF90DF90CF90BF90AF9096
:104070009F908F900895F80182818052990B8E9DB8
:10408000B0018F9D700D9E9D700D11248181805710
:10409000990B8C9D90018D9D300D9C9D300D1124B0
:1040A000620F731F77FF02C061587F4F660F672F43
:1040B000661F770B80919709680F792D882D0E94D4
:1040C0007F1B472F282FCE010E94FC1C0C5F1F4F27
:1040D0002196BDCF6F927F928F929F92AF92BF92A7
:1040E000CF92DF92EF92FF920F931F93CF93DF93C4
:1040F000FC01C0818AE0C89FC02D11247AE0972E70
:104100009C0E892CF1E3F91510F461E3862E709072
:1041100098096090990920919B0930919C098091A0
:104120009A098695869510E000E0289F012D389F1A
:10413000000D111D112480E4800F0E94151C805871
:10414000990B7C01EE0CFF1CE80EF91E802F0E94DB
:10415000151C8058990B6C01CC0CDD1CC80ED91EA7
:10416000D0E08E01000F111F000F111F0E531A4FC8
:1041700058E3A52EB12CC815A0F081E090E3991565
:1041800008F480E0DF91CF911F910F91FF90EF90A5
:10419000DF90CF90BF90AF909F908F907F906F9067
:1041A0000895F8018181805787FD819522812052F1
:1041B000330B2E9DB0012F9D700D3E9D700D11246F
:1041C0009501281B310987FD33952C9DC0012D9D3C
:1041D000900D3C9D900D1124680F791F77FF02C050
:1041E00061587F4F660F672F661F770B8091970985
:1041F000680F772D862D0E947F1B472F282FCE0119
:104200000E94FC1C0C5F1F4F2196B5CFBF92CF922E
:10421000DF92EF92FF920F931F93CF93DF93FC01F6
:10422000C0818AE0C89FC02D11242AE0F22EFC0E26
:10423000EF2CF1E3FF1510F491E3E92ED0909809EB
:10424000C090990940919B0950919C0920919A092D
:104250002695269590E080E0429F812D529F800D0B
:10426000911D1124B82ED0E08E01000F111F000FF8
:10427000111F0E531A4FCE1578F081E090E39F1571
:1042800008F480E0DF91CF911F910F91FF90EF90A4
:10429000DF90CF90BF900895F8016281605267FD72
:1042A0006195809197098B199181890F680F7D2DF8
:1042B0008C2D0E947F1B472F282FCE010E94FC1CB3
:1042C0000C5F1F4F2196D7CF1F93CF93DF93EC0145
:1042D0000E941149182F0E941149612F782F809157
:1042E00099090E947F1B472F282FCE01DF91CF9184
:1042F0001F910C94FC1CFF920F931F93CF93DF939D
:10430000FC01C281C11128C020919A0930E1230F1C
:1043100008F42FEF40919B0950919C0990E080E0B8
:10432000429F812D529F800D911D112465E070E008
:104330000E949548892B49F40E94114969E170E077
:104340000E94A94848960E9464218C2FDF91CF914A
:104350001F910F91FF900895C0818AE0C89FC02DE2
:1043600011248AE0F82EFC0E0F2DF1E3FF1508F45E
:1043700001E3D0E010E0C017D10734F0C1E080E3E2
:104380008F1518F7C0E0E1CFCE010E94642121967D
:10439000F2CFDF92EF92FF920F931F93CF93DF93B1
:1043A000FC01C0818AE0C89FC02D11241AE01C0FB7
:1043B000012F123308F001E340919B0950919C09B1
:1043C00020919A0926952695269590E080E0429FB7
:1043D000812D529F800D911D1124D09199090E9429
:1043E000151C805887FD8195880F282F3D2F239F0E
:1043F000212D1124822F60919709709198090E94B4
:104400007F1BF62EE72ED82ED0E0C01760F081E09B
:10441000113308F080E0DF91CF911F910F91FF9051
:10442000EF90DF9008952D2D4E2D6F2DCE010E941F
:10443000FC1C2196EACFE091B607F091B7070994EA
:104440006F927F928F929F92AF92BF92CF92DF92A4
:10445000EF92FF920F931F93CF93DF93CDB7DEB709
:1044600028970FB6F894DEBF0FBECDBFDC011296C1
:104470008C91882371F040E060E080E00E941B2274
:10448000E3E7F8E080E3DF011D928A95E9F71092F7
:10449000720883E7C82E88E0D82E00E077247A944B
:1044A00090EDA92EB12C20EC622E3FE2832E912CB0
:1044B000760110E0111178C080917208811174C0EA
:1044C0000E941149853595400CF06EC0F60170824E
:1044D000AE014F5F5F4F602F812F0E94DD1C88234C
:1044E000B1F0F7012081E981F0E0213D08F464C0DA
:1044F000205D330B629EC001639E900D1124B401B8
:104500000E949548262F4FEFCF010E94FC1C1F5F91
:10451000FFEFEF1AFF0A143069F60F5F24E0C20EB6
:10452000D11C0C3029F6809172088F5F8D3108F410
:104530004DC0109272088DEF9FEF23E062E778E0A4
:104540004EEFFB01E81BF90B3CE0233051F4DF0197
:10455000A80FB91F14965C9114975F3F11F414963D
:104560004C9350815F3F11F4408351833150349616
:104570003111EBCF215001962111E3CF80E0289635
:104580000FB6F894DEBF0FBECDBFDF91CF911F9164
:104590000F91FF90EF90DF90CF90BF90AF909F90E2
:1045A0008F907F906F900895D7018C9181508E3FAE
:1045B00008F08ECF8C938CCF279DC0011124B501BC
:1045C0000E949548462F20E060E09ECF80937208BD
:1045D000D5CF08950E94E9220C946E078F929F9286
:1045E000AF92BF92CF92DF92EF92FF920F931F9301
:1045F000CF93DF936091A6087091A7088091A808D7
:104600009091A9080E94AA376B017C010E9474371F
:104610004B015C018092A6089092A708A092A8087E
:10462000B092A90880919F099091A009A091A10939
:10463000B091A2098F3F2FEF9207A207B207C1F0F6
:10464000EE24FF2497018601009510952095309562
:10465000081719072A073B0770F58FEF9FEFDC015A
:1046600080939F099093A009A093A109B093A209F8
:1046700080919609982F9370182F16951695911181
:1046800001C010E090915F05913041F1C8F0923087
:1046900009F4C4C0933009F4C9C0DF91CF911F91D0
:1046A0000F91FF90EF90DF90CF90BF90AF909F90D1
:1046B0008F900C94EA228C0D9D1DAE1DBF1DD0CF96
:1046C0001092A30880929B0990929C09A0929D0948
:1046D000B0929E0981E080935F05DFCF90916005E5
:1046E000191324C0982F93702091610530E081E068
:1046F0009217130609F480E081708093A5081F309B
:1047000060F5E12FF0E0E957FC4D0C94BD4898238B
:10471000B723CD23D223D723DC23E123E623EB23C6
:10472000F023F523FA23FF230424092481E0E4CFB6
:10473000882309F1C091A3088AE0C89FC02D1124E5
:104740000AE00C0FF02E023310F081E3F82ED0E0D7
:10475000CF1528F081E0013370F080E00CC020E03C
:1047600040E060E0CE010E94FC1C2196F1CF83EA7C
:1047700098E00E94011D9091A3089F5F9093A30869
:1047800081118BCF82E080935F058091A508811114
:1047900084CF111182CF83E09ECF83EA98E00E94FC
:1047A000361DE9CF83EA98E00E94161EE4CF83EA23
:1047B00098E00E94C921DFCF83EA98E00E94EF1EB3
:1047C000DACF83EA98E00E94331FD5CF83EA98E0DE
:1047D0000E94891FD0CF83EA98E00E940621CBCFA8
:1047E00083EA98E00E948B1DC6CF83EA98E00E947E
:1047F000DF1FC1CF83EA98E00E946A20BCCF83EA22
:1048000098E00E94A11EB7CF83EA98E00E947B2126
:10481000B2CF83EA98E00E942022ADCF10936005CA
:104820008370809361050E94F71CB5CF60919B094E
:1048300070919C0980919D0990919E090E94AA37D0
:10484000603171058105910508F427CF10925F054D
:1048500024CFE091B207F091B30709950E94F53596
:10486000811110C08091660980FF08C08BE295E03D
:104870009F938F930E94CA050F900F900E947D36E0
:104880000E943E1C0E94341C609396097093970905
:1048900080939809909399098FE780939A096C7F88
:1048A000C1F48091660980FF08C086ED94E09F9373
:1048B0008F930E94CA050F900F900E943E1C0E9489
:1048C000341C60939609709397098093980990938C
:1048D00099090C94611C8093AA08089590919609F7
:1048E00081E0890F83709C7F892B80939609837068
:1048F00011F410925F05609196097091970980916B
:104900009809909199090C94381C80919609982FD8
:10491000969596959F5F9F7383709F3088F4990F4B
:10492000990F892B8093960910925F0560919609E3
:104930007091970980919809909199090C94381C6D
:104940008460F0CF80919609845080939609982FC7
:104950009C7F21F4837088638093960910925F0591
:1049600060919609709197098091980990919909A1
:104970000C94381CE6E9F9E08181885F81836081CD
:104980007181828193810C94381CE6E9F9E0818180
:104990008850818360817181828193810C94381C5D
:1049A000E6E9F9E0228130E1230F08F42FEF2283BA
:1049B00060817181828193810C94381CE6E9F9E071
:1049C000228130E1231B08F420E022836081718181
:1049D000828193810C94381CE6E9F9E0238130E16F
:1049E000230F08F42FEF23836081718182819381EB
:1049F0000C94381CE6E9F9E0238130E1231B08F42C
:104A000020E0238360817181828193810C94381C22
:104A1000E6E9F9E0248130E1230F08F42FEF248345
:104A200060817181828193810C94381CE6E9F9E000
:104A3000248130E1231B08F420E02483608171810C
:104A4000828193810C94381CE6E9F9E0982F990F44
:104A5000990F80818370892B808310925F0560811C
:104A60007181828193810C94381C66E784E70C94F1
:104A7000D026CF930E94072784E70E94822586E7ED
:104A80000E948225C0E021E041E061E08C2F0E947D
:104A90001426CF5FC133B9F766E784E7CF910C9452
:104AA000E326E3ECFAE06083418324E630E042E071
:104AB00050E0BF01880F0C9491270F931F93CF9361
:104AC000DF93082F000FEB0114E21093C30AE4EC0C
:104AD000FAE0DE018D9181938AE0E43DF807D1F799
:104AE00024E630E041E150E063EC7AE0802F0E9460
:104AF0009127105F6096143B41F7DF91CF911F9192
:104B00000F910895CF93DF93C82F4BE06DEF0E9474
:104B1000512540E06AE08C2F0E9451258FE39CE9EB
:104B20000197F1F700C0000040E060E08C2F0E9488
:104B3000512540E061E08C2F0E94512540E066E065
:104B40008C2F0E94512540E06DEF8C2F0E94512543
:104B5000D0E040E06D2F8C2F0E945125DF5FD231D5
:104B6000C1F740E06D2F8C2F0E945125DF5FD432BA
:104B7000C1F740E06D2F8C2F0E945125DF5FD43BA1
:104B8000C1F74BE06DEF8C2F0E94512541E06AE0A8
:104B90008C2F0E94512540E06DEF8C2FDF91CF913B
:104BA0000C9451258133910520F5880F991F880FAA
:104BB000991FFC01EA57F94F52813381808183703C
:104BC000E18170E9879FC00111248D55964FE80F50
:104BD000F92FF11DB4976083FC01E50FF11DB49727
:104BE0004083830F911DFC01B497208381E0809363
:104BF000D0080895FF920F931F93CF93DF93182F40
:104C0000062FF42ED0E0C0E02F2D402F612FCE01D3
:104C10000E94D2252196C133D105B1F7DF91CF9102
:104C20001F910F91FF9008958F929F92AF92BF9224
:104C3000CF92DF92EF92FF920F931F93CF93DF9368
:104C4000862E082F10E0F801EE0FFF1FEE0FFF1F5A
:104C5000EA57F94F8181682F6452770B6B016281AB
:104C600070E0CB018497EC0197FD279673E0D59512
:104C7000C7957A95E1F7638170E07B01A4E2EA1AB7
:104C8000F108F701F7FC379633E0F595E7953A958B
:104C9000E1F758E0A52EB12CB5010E94A948982E45
:104CA000C701B5010E94A948382F000F111F000F3E
:104CB000111FD801AA57B94F8C918370E82EF12C9F
:104CC0008601D7FE02C0095F1F4F83E01595079547
:104CD0008A95E1F752E15E9DC0015F9D900D112420
:104CE0008455974F080F192F111DD801BC90C6018C
:104CF00068E070E00E94A94861E070E0DB0102C05A
:104D0000AA0FBB1F8A95E2F7CD01882009F43FC0A6
:104D10008B29D8018C9352E15E9DC0015F9D900D5F
:104D200011248455974FC80FD92FD11D588181E088
:104D300090E001C0880F9A94EAF7442359F1852B3B
:104D4000888342E14E9DC0014F9D900D11248455F2
:104D5000974FE80FF92FF11D408181E090E001C0ED
:104D6000880F3A95EAF72223C1F0842B808381E0F3
:104D70008093AB08DF91CF911F910F91FF90EF903F
:104D8000DF90CF90BF90AF909F908F9008958095C7
:104D90008B21BFCF80958523D3CF80958423E6CF09
:104DA000CF93C62F9091D008992349F063EA79E018
:104DB0000E945D2563E37AE08C2F0E945D251092AE
:104DC000D008CF910895FF920F931F93CF93DF9355
:104DD000F82ED62F8091AB08882399F00CEA18E0C2
:104DE000C0E0F80141918F016C2F8F2D0E94512559
:104DF000F80141896C2F8D2F0E945125CF5FC23160
:104E000081F7DF91CF911F910F91FF90089510923C
:104E1000B9008CE08093B8000895EF92FF920F9351
:104E20001F93CF93DF93182FEB011092BC0084EAFD
:104E30008093BC000E9468377C018091BC0087FF92
:104E40000DC08091B900887F8830D9F08091B90079
:104E5000887F8031B1F08FEF9FEF0CC0CF3FDC0730
:104E600061F30E9468378E199F098C179D0728F3FC
:104E70008EEF9FEFDF91CF911F910F91FF90EF90F9
:104E800008951093BB0084E88093BC000E946837AB
:104E90008C018091BC0087FF0AC08091B900887F97
:104EA000883111F08034B9F690E080E0E3CFCF3F55
:104EB000DC0779F30E946837801B910B8C179D07E4
:104EC00040F3D6CF0F931F93CF93DF93EB018093E3
:104ED000BB0084E88093BC000E9468378C018091FD
:104EE000BC0087FF11C02091B900287F81E090E0CD
:104EF000283211F490E080E0919581959109DF913D
:104F0000CF911F910F910895CF3FDC0741F30E948D
:104F10006837801B910B8C179D0708F38EEF9FEF6E
:104F2000EECFCF92DF92EF92FF920F931F93CF932A
:104F3000DF936B018A017901B9010E940D27E60117
:104F40000C0D1D1DC017D10761F424E92093BC008E
:104F5000DF91CF911F910F91FF90EF90DF90CF9055
:104F6000089597FDF2CFB70189910E946227EACF99
:104F7000CF93DF93EC0181E0898B8F810E94CC3449
:104F800088850E94E0340E941B35EA81FB816C8990
:104F90007D89CE010696309719F0DF91CF91099463
:104FA000DF91CF910895CF93DF93EC018881823018
:104FB00039F4FB01828193810E94E00781E08B87B5
:104FC000DF91CF910895FC018081813029F4FB01AC
:104FD000808191810C94E007823021F4FB01828171
:104FE0009381F8CF0895FC018081813029F4FB0181
:104FF000808191810C94F507823021F4FB0182813C
:105000009381F8CF0895EF92FF920F931F93CF9360
:10501000DF93EC018A85811134C0EB80FC8087E549
:10502000F81A26E12E9DC0012F9D900D1124DC0160
:10503000A15EBE4F1496ED91FC91159754966D911B
:105040007C918B5D9E4F309709F0099586E18E9D8E
:1050500080018F9D100D1124015E1E4FF801878184
:105060000E94D234F80180850E94E6340E941B35EC
:10507000188219861B861E821D821092D2081092F9
:10508000D108DF91CF911F910F91FF90EF9008957C
:10509000DF92EF92FF920F931F93CF93DF937C01E8
:1050A000FB018281882391F0809162058F3F71F02E
:1050B000CFE1D1E010E000E0DD24D39480916205DF
:1050C000082E000C990B8017910744F4DF91CF91C3
:1050D0001F910F91FF90EF90DF9008958E818823AC
:1050E000C9F089859A858E159F0539F48091D1087C
:1050F0009091D2088E159F0569F0DF86FC86EB86BD
:105100008989811103C0CE010E94B827CE0106967D
:105110000E9403280F5F1F4F6696D0CFEF92FF9239
:105120000F931F93CF93DF937C0197558F3F91058A
:1051300009F0D8F520916205022E000C330B2817D8
:10514000390714F480936205FB01228136E1389F10
:105150008001399F100D1124E801C15EDE4F288BBC
:1051600092818E81992349F1FA86E9868F5F8E8339
:105170000E9468379E878D870E9402358F830E9428
:10518000C93488870E94DD349885892B8887E88117
:10519000F9816C897D89C8018B5D9E4F309709F03C
:1051A0000995F092D208E092D10881E0DF91CF9189
:1051B0001F910F91FF90EF9008958823B1F3898993
:1051C000882399F3C8018B5D9E4F0E940328EDCF81
:1051D000EF92FF920F931F93CF93DF93809162051D
:1051E00010E006E18F3FC1F5DF91CF911F910F9144
:1051F000FF90EF900895029FF001039FF00D11249E
:10520000E15EFE4FE288F388E114F10419F488ECC2
:10521000E82EF12C029FE001039FD00D1124C15E06
:10522000DE4F8E818823B9F08D859E850E94803760
:10523000E816F90680F4109F700111248989811104
:1052400005C0C701815E9E4F0E94B827C7018B5DD4
:105250009E4F0E9403281F5F212F30E0809162053E
:10526000082E000C990B821793072CF6BDCF909354
:10527000D8088093D7080895E091D708F091D8080E
:10528000309721F00190F081E02D099480E008959D
:10529000EF92FF920F931F93CF93DF93EC01E09176
:1052A000D708F091D808309709F446C080917B0563
:1052B000882341F08091DB0A87FF04C088818983BD
:1052C00085E088830280F381E02DCE0109958091ED
:1052D000660982FF31C080FF04C080E597E00E942C
:1052E000310510E000E08AE4E82E87E0F82E809196
:1052F000660980FF0EC0FE01E00FF11F80811F9242
:105300008F93FF92EF920E94CA050F900F900F901B
:105310000F900F5F1F4F0830110549F78091660904
:1053200080FF0AC088E497E0DF91CF911F910F9131
:10533000FF90EF900C943105DF91CF911F910F9169
:10534000FF90EF9008952091D5083091D608281746
:10535000390771F09093D6088093D508E091D7086B
:10536000F091D808309721F00680F781E02D09945C
:1053700008952091D3083091D4082817390771F087
:105380009093D4088093D308E091D708F091D8087F
:10539000309721F00084F185E02D0994089585B7B8
:1053A000806885BF85B7806885BF08950895089592
:1053B0000C94D62908950C94DA290E94CF290E94D2
:1053C000D7290C94D82981E008950E945F370E9464
:1053D000170E0E9411380C94DB29CF93C82F8091AF
:1053E000660982FF1EC080FF04C089E697E00E9424
:1053F00031058091660980FF0CC01F92CF9384E62F
:1054000097E09F938F930E94CA050F900F900F9083
:105410000F908091660980FF04C082E697E00E94A9
:1054200031058C2FCF910C94D0085F926F927F92B0
:105430008F929F92AF92BF92CF92DF92EF92FF92A4
:105440000F931F93CF93DF93CDB7DEB72A970FB695
:10545000F894DEBF0FBECDBF0E94760E0E94E329F6
:10546000882309F47AC09AEDA92E98E0B92E10E0AD
:1054700000E088248394912C502E802F0E94C70D29
:105480007C01F501C190D1905F01C816D90609F4DD
:105490005EC08091660981FD0E94D00D90E080E0A1
:1054A000CE24DF243401082E02C0660C771C0A9437
:1054B000E2F7960126213721232B09F443C08E837E
:1054C0005F82E620F72081E0EF2809F480E08887FA
:1054D0000E9468378160782F9A8789874E815F8123
:1054E00068858A850E94D42A000F111FF801E652B0
:1054F000F74F8081918168267926718260820E94AF
:105500006E190E943C299091D9088917B9F10E941F
:105510003C298093D9082A960FB6F894DEBF0FBEB7
:10552000CDBFDF91CF911F910F91FF90EF90DF9052
:10553000CF90BF90AF909F908F907F906F905F9033
:105540000C94ED2901968C30910509F0ABCF0F5FDB
:105550001F4F0430110509F08FCF8FEF89838A83A5
:105560001B820E9468378160782F9D838C834981DC
:105570005A816B818D810E94D42AC1CF2A960FB6A1
:10558000F894DEBF0FBECDBFDF91CF911F910F9179
:10559000FF90EF90DF90CF90BF90AF909F908F9053
:1055A0007F906F905F900895CF93DF93CDB7DEB774
:1055B0002B970FB6F894DEBF0FBECDBF4F83588731
:1055C00069877A878B871E821D8285E0FE01379668
:1055D000DE01119601900D928A95E1F749815A8179
:1055E0006B817C818D819E812B960FB6F894DEBFF6
:1055F0000FBECDBFDF91CF910C94AD31FC01808106
:1056000091810C947634882309F4FFC08238B9F470
:105610000E943C2981FDF9C089E30E94A4340E94C4
:105620001B352FEF81EE94E0215080409040E1F750
:1056300000C0000089E30E94AB340C941B35833812
:10564000A1F40E943C2980FDE0C083E50E94A434BF
:105650000E941B352FEF81EE94E021508040904056
:10566000E1F700C0000083E5E6CF8438A1F40E9492
:105670003C2982FDCAC087E40E94A4340E941B35E5
:105680002FEF81EE94E0215080409040E1F700C080
:10569000000087E4D0CF9CEF980F913A18F40E9455
:1056A000A434CBCF90E2980F983050F4877091E0FB
:1056B00001C0990F8A95EAF7892F0E94CC34BDCF9B
:1056C0009BE5980F933070F4853A31F0863A39F0C3
:1056D00083E890E00C94A32981E890E0FBCF82E876
:1056E00090E0F8CF98E5980F973108F08EC0883A8F
:1056F00009F446C0893A09F446C08A3A09F446C01A
:105700008B3A09F446C08C3A09F446C08B3B09F445
:1057100046C08C3B09F446C08D3A09F446C0803B34
:1057200009F446C08E3A09F446C08F3A09F446C0DF
:10573000813B09F446C0823B09F446C0833B09F42F
:1057400046C0843B09F446C0853B09F446C0863B0D
:1057500009F446C0873B09F446C0883B09F446C0BB
:10576000893B09F446C08D3B09F446C08E3B09F4E1
:1057700046C08A3B09F446C090E080E00C94B92909
:1057800082EE90E0FBCF89EE90E0F8CF8AEE90E0D9
:10579000F5CF85EB90E0F2CF86EB90E0EFCF83EB97
:1057A00090E0ECCF84EB90E0E9CF87EB90E0E6CFA0
:1057B0008CEC90E0E3CF8DEC90E0E0CF83E891E0DB
:1057C000DDCF8AE891E0DACF82E991E0D7CF84E9B2
:1057D00091E0D4CF81E292E0D1CF83E292E0CECFCC
:1057E00084E292E0CBCF85E292E0C8CF86E292E0FD
:1057F000C5CF87E292E0C2CF8FE690E0BFCF80E7CF
:1058000090E0BCCF8AE292E0B9CF0895882309F4F2
:105810004BC0823871F40E943C2981FF45C089E366
:105820000E94A4340E941B3589E30E94AB340C947F
:105830001B35833859F40E943C2980FF35C083E52D
:105840000E94A4340E941B3583E5EFCF843859F4BD
:105850000E943C2982FF28C087E40E94A4340E9451
:105860001B3587E4E2CF9CEF980F913AF0F290E27B
:10587000980F983050F4877091E001C0990F8A9585
:10588000EAF7892F0E94D234D2CF9BE5980F93304C
:1058900020F490E080E00C94A329885A873120F40A
:1058A00090E080E00C94B9290895882321F00E94AB
:1058B000CC340C941B350895882321F00E94D234F7
:1058C0000C941B3508958F929F92AF92BF92DF92F6
:1058D000EF92FF920F931F93CF93DF937C01D62F0C
:1058E000C72FFC01058102950F70128111110E94D2
:1058F000EE340E94C234D82E882371F0112331F186
:1059000080E28D0F883010F182E00E9466350E949F
:10591000C23491E0D82ED926BC2EB2949FE0B92291
:10592000EB2DF0E0EA56F34D0C94BD48A82CA82CC2
:10593000F82CF82C3F2D462D462D462D672D462D53
:10594000022E022E8C2E462D462D952ED12CE4CFE4
:105950000C2F0F70C07F11F00295007F1123A9F06A
:10596000002359F080E28D0F883010F0D11109C06A
:10597000802F0E94CC340E941B358D2F0E94032B58
:1059800014C0802F0E94E034F6CF8D2F0E94062C89
:10599000002359F080E28D0F883010F0D11124C01F
:1059A000802F0E94D2340E941B35DD2009F4C4C12F
:1059B0000E94BE3480FDC0C1F70112820E94B8343B
:1059C0000E943E33C7010E94A82E0E94B834DF9186
:1059D000CF911F910F91FF90EF90DF90BF90AF900C
:1059E0009F908F900C945F33802F0E94E634DBCF22
:1059F000FC2FFF70BF2EC07FC03219F0B29480EF31
:105A0000B822DD2369F0D13049F1112391F100234F
:105A100051F1F701858180FFB0CF8F70858323C05E
:105A2000112381F0011106C00E9402358B290E94CA
:105A3000552CBBCF0130C1F70E9402358B290E9443
:105A40000835B3CF011106C00E9411358B2D0E947D
:105A50005C2CABCF013009F4A8CFF6CF112329F08D
:105A6000063008F0A2CF8B2DE2CF053008F09DCF95
:105A7000EDCF002359F38D2F0E94062C96CF8C2F4B
:105A800086958695837079F08130B9F098E0B916E3
:105A900009F459C0B91608F488CF86EF8B0D82300F
:105AA00008F451C082CF8D2F9C2F9370111102C02A
:105AB00090E080E00E94A32978CF8D2F9C2F9370D7
:105AC000111102C090E080E00E94B9296ECF8C2FA6
:105AD000837009F04BC0111136C02D2F22952695E9
